:100000000C942A000C9447000C9447000C94470071
:100010000C9447000C9447000C9447000C94470044
:100020000C9447000C9447000C9447000C94470034
:100030000C9447000C9487000C9447000C944700E4
:100040000C9447000C9447000C9447000C94470014
:100050000C94470011241FBECFE5D8E0DEBFCDBF12
:1000600011E0A0E6B0E0E4ECF4E002C005900D92EF
:10007000AE37B107D9F711E0AEE7B1E001C01D928C
:10008000A33EB107E1F70E94DA000C9460020C94E1
:10009000000082E08BB988E98AB986E880BD87E6EE
:1000A00089B910BC08955D9BFECF8CB908955F9B04
:1000B000FECF8CB10895FC0104C05D9BFECF8CB9CE
:1000C000319680818823C9F708950F931F93DF939A
:1000D000CF93CDB7DEB764970FB6F894DEBF0FBEEF
:1000E000CDBF8E010F5F1F4FB8014AE050E00E9464
:1000F0001B02C8010E945B0064960FB6F894DEBF35
:100100000FBECDBFCF91DF911F910F9108951F9228
:100110000F920FB60F9211242F938F939F93EF930B
:10012000FF932FB7F89480917E019CB1E82FF0E007
:10013000E158FE4F90838F5F80937E01843611F4E7
:1001400010927E012FBFFF91EF919F918F912F9180
:100150000F900FBE0F901F90189510927E0184E6AD
:10016000EFE7F1E0DF011D928A95E9F70895BC0100
:100170008FE791E00E940102009711F480E008955A
:100180000E94AD0081E00895BC01DC010D900020CB
:10019000E9F71197A81BB90B8FE791E04A2F50E0C0
:1001A0000E94F301009711F080E008950E94AD00D5
:1001B00081E008950E944900789480E29EE428EC52
:1001C00030E0F9013197F1F70197D9F70E94AD00BE
:1001D00080E690E00E945B0080E395E728EC30E049
:1001E000F9013197F1F70197D9F786E690E00E947F
:1001F0005B0080E395E728EC30E0F9013197F1F7F7
:100200000197D9F782E790E00E945B0080E395E7D1
:1002100028EC30E0F9013197F1F70197D9F78FE732
:1002200090E00E945B0080E395E728EC30E0F90164
:100230003197F1F70197D9F78DE890E00E945B00C4
:1002400080E395E728EC30E0F9013197F1F7019769
:10025000D9F789E990E00E945B0080E395E728ECFC
:1002600030E0F9013197F1F70197D9F783EA90E08F
:100270000E945B0080E395E728EC30E0F9013197BC
:10028000F1F70197D9F78AED90E00E945B0080E3D7
:1002900095E728EC30E0F9013197F1F70197D9F7AC
:1002A00084EE90E00E945B0080E395E728EC30E06C
:1002B000F9013197F1F70197D9F78EEE90E00E949E
:1002C0005B0080E69AEE28EC30E0F9013197F1F717
:1002D0000197D9F78CE191E00E945B0080E395E7FC
:1002E00028EC30E0F9013197F1F70197D9F780E177
:1002F0000E94530083E30E94530080E00E94530059
:1003000084E00E94530088E291E00E945B0084E058
:100310000E94530082EC0E94530080E00E94530030
:100320008CE30E94530080E00E94530080E10E9411
:1003300053008DE291E00E945B0080E00E94530038
:1003400083E00E9453008EE391E00E945B0080E016
:100350000E94530080E10E94530082E491E00E94D9
:100360005B008AE10E94530080E49CE928EC30E0C5
:10037000F9013197F1F70197D9F70E94AD008CE1AF
:1003800091E00E945B0080E395E728EC30E0F90102
:100390003197F1F70197D9F782E80E9453008CE278
:1003A0000E94530080E00E9453008AE00E945300A4
:1003B00080E00E94530087E20E94530083E591E0B1
:1003C0000E945B008DE591E00E945B0084E691E075
:1003D0000E945B0080E00E9453008AE10E9453006B
:1003E00080E090E00895FB01DC014150504030F086
:1003F0008D910190801919F40020B9F7881B990B91
:100400000895FB0151915523A9F0BF01DC014D91E5
:1004100045174111E1F759F4CD010190002049F051
:100420004D9140154111C9F3FB014111EFCF81E01E
:1004300090E001970895FB019F01E8944230C4F0D9
:100440004532B4F44A3029F497FB1EF49095819517
:100450009F4F642F77270E944C02805D8A330CF0F7
:10046000895D8193CB010097A1F716F45DE251936A
:100470001082C9010C943C02DC01FC01672F7191D0
:100480007723E1F7329704C07C916D93708362917A
:10049000AE17BF07C8F30895AA1BBB1B51E107C0E5
:1004A000AA1FBB1FA617B70710F0A61BB70B881F04
:1004B000991F5A95A9F780959095BC01CD01089593
:0404C000F894FFCFDE
:1004C400415445310D0041542B4349505348555430
:1004D4000D0041542B4349504D55583D300D0041BA
:1004E400542B4349504D4F44453D300D0041542B4E
:1004F40043474154543D310D0041542B4352454729
:100504003F0D0041542B435354543D22696E74658E
:10051400726E65742E766F6461666F6E652E6E659D
:1005240074222C22696E7465726E6574222C2269A1
:100534006E7465726E6574220D0041542B434949F3
:1005440043520D0041542B43494653520D0041542C
:100554002B43495053544152543D22544350222C6E
:10056400226D7174742E7468696E67737065616B43
:100574002E636F6D222C313838330D0041542B43D8
:10058400495053454E440D004D51545400313132BD
:1005940033327369793177657531653231006E6D47
:1005A40072004758514438564E37385241495341E6
:1005B4005548006368616E6E656C732F0039393677
:1005C400373336002F7375627363726962652F6601
:0E05D40069656C64732F6669656C64310000A4
:00000001FF
