:100000000C942A000C9447000C9447000C94470071
:100010000C9447000C9447000C9447000C94470044
:100020000C9447000C9447000C9447000C94470034
:100030000C9447000C9487000C9447000C944700E4
:100040000C9447000C9447000C9447000C94470014
:100050000C94470011241FBECFE5D8E0DEBFCDBF12
:1000600011E0A0E6B0E0EEE7F5E002C005900D92E9
:10007000A239B107D9F711E0A2E9B1E001C01D92A0
:10008000A73FB107E1F70E94DA000C94BD020C947F
:10009000000082E08BB988E98AB986E880BD87E6EE
:1000A00089B910BC08955D9BFECF8CB908955F9B04
:1000B000FECF8CB10895FC0104C05D9BFECF8CB9CE
:1000C000319680818823C9F708950F931F93DF939A
:1000D000CF93CDB7DEB764970FB6F894DEBF0FBEEF
:1000E000CDBF8E010F5F1F4FB8014AE050E00E9464
:1000F0007802C8010E945B0064960FB6F894DEBFD8
:100100000FBECDBFCF91DF911F910F9108951F9228
:100110000F920FB60F9211242F938F939F93EF930B
:10012000FF932FB7F894809192019CB1E82FF0E0F3
:10013000ED56FE4F90838F5F80939201843611F4C9
:10014000109292012FBFFF91EF919F918F912F916C
:100150000F900FBE0F901F9018951092920184E699
:10016000E3E9F1E0DF011D928A95E9F70895BC010A
:1001700083E991E00E945E02009711F480E0089507
:100180000E94AD0081E00895BC01DC010D900020CB
:10019000E9F71197A81BB90B83E991E04A2F50E0CA
:1001A0000E945002009711F080E008950E94AD0077
:1001B00081E00895CF93DF930E944900789480E214
:1001C0009EE428EC30E0F9013197F1F70197D9F777
:1001D0000E94AD0080E690E00E945B0080E395E71E
:1001E00028EC30E0F9013197F1F70197D9F786E66D
:1001F00090E00E945B0080E395E728EC30E0F90195
:100200003197F1F70197D9F780E790E00E945B0002
:1002100080E395E728EC30E0F9013197F1F7019799
:10022000D9F78CE790E00E945B0080E395E728EC2B
:1002300030E0F9013197F1F70197D9F789E890E0BB
:100240000E945B0080E395E728EC30E0F9013197EC
:10025000F1F70197D9F787E990E00E945B0080E30E
:1002600095E728EC30E0F9013197F1F70197D9F7DC
:1002700083EA90E00E945B0080E395E728EC30E0A1
:10028000F9013197F1F70197D9F783EC90E00E94DB
:100290005B0080E395E728EC30E0F9013197F1F756
:1002A0000197D9F78DEC90E00E945B0080E395E721
:1002B00028EC30E0F9013197F1F70197D9F787ED94
:1002C00090E00E945B0080E69AEE28EC30E0F901B5
:1002D0003197F1F70197D9F785E091E00E945B0033
:1002E00080E395E728EC30E0F9013197F1F70197C9
:1002F000D9F780E10E94530083E30E94530080E01D
:100300000E94530084E00E94530081E191E00E942A
:100310005B0084E00E94530082EC0E94530080E066
:100320000E9453008CE30E94530080E00E9453001F
:1003300080E10E94530086E191E00E945B0080E032
:100340000E94530083E00E94530087E291E00E94E4
:100350005B0080E00E94530080E10E9453008BE22A
:1003600091E00E945B008AE10E94530080E49CE9D6
:1003700028EC30E0F9013197F1F70197D9F70E94A5
:10038000AD0085E091E00E945B0080E395E728ECFA
:1003900030E0F9013197F1F70197D9F780E30E9436
:1003A000530089E30E94530080E00E94530086E3DB
:1003B0000E9453008CE391E00E945B0086E491E090
:1003C0000E945B008DE491E00E945B0085E691E075
:1003D0000E945B0086E791E00E945B008AE10E9438
:1003E000530080E593EC28EC30E0F9013197F1F708
:1003F0000197D9F785E091E00E945B0080E395E7E3
:1004000028EC30E0F9013197F1F70197D9F782E84C
:100410000E9453008CE20E94530080E00E9453002F
:100420008AE00E94530080E00E94530087E20E940D
:1004300053008CE391E00E945B0086E491E00E940F
:100440005B0088E791E00E945B0080E00E9453001F
:100450008AE10E945300C8ECD0E085E091E00E9460
:100460005B0080E395E7FE013197F1F70197D9F73B
:1004700080EC0E94530080E00E9453008AE10E94B9
:10048000530080E593ECFE013197F1F70197D9F71E
:1004900080E593ECFE013197F1F70197D9F7DDCFB5
:1004A000FB01DC014150504030F08D9101908019EA
:1004B00019F40020B9F7881B990B0895FB0151919D
:1004C0005523A9F0BF01DC014D9145174111E1F71A
:1004D00059F4CD010190002049F04D914015411192
:1004E000C9F3FB014111EFCF81E090E0019708953E
:1004F000FB019F01E8944230C4F04532B4F44A3025
:1005000029F497FB1EF4909581959F4F642F7727D0
:100510000E94A902805D8A330CF0895D8193CB0132
:100520000097A1F716F45DE251931082C9010C9473
:100530009902DC01FC01672F71917723E1F7329773
:1005400004C07C916D9370836291AE17BF07C8F3AE
:100550000895AA1BBB1B51E107C0AA1FBB1FA6170A
:10056000B70710F0A61BB70B881F991F5A95A9F75C
:0E05700080959095BC01CD010895F894FFCFC1
:10057E00415445310D0041542B435245473F0D0028
:10058E0041542B434950534855540D0041542B436D
:10059E0049504D55583D300D0041542B4349504D57
:1005AE004F44453D300D0041542B43474154543D7B
:1005BE00310D0041542B435354543D22696E7465E2
:1005CE00726E65742E54452E6567222C22222C22C3
:1005DE00220D0041542B43494943520D0041542BE7
:1005EE0043494653520D0041542B434950535441F5
:1005FE0052543D22544350222C226D7174742E7429
:10060E0068696E67737065616B2E636F6D222C3136
:10061E003838330D0041542B43495053454E440D49
:10062E00004D515454003131323332736979317780
:10063E00657531653231006E6D7200475851443820
:10064E00564E373852414953415548006368616EE2
:10065E006E656C732F00393936373336002F70754F
:10066E00626C6973682F6669656C64732F66696561
:10067E006C64312F00524E4E4E3930584B4154411E
:10068E0053555A5A470037002F7375627363726958
:10069E0062652F6669656C64732F6669656C64317B
:0206AE0000004A
:00000001FF
